{
  "contractName": "LoginSession",
  "abi": [
    {
      "inputs": [],
      "payable": false,
      "stateMutability": "nonpayable",
      "type": "constructor"
    },
    {
      "anonymous": false,
      "inputs": [
        {
          "indexed": false,
          "name": "message",
          "type": "string"
        }
      ],
      "name": "SaveSessionEvent",
      "type": "event"
    },
    {
      "anonymous": false,
      "inputs": [
        {
          "indexed": false,
          "name": "message",
          "type": "string"
        }
      ],
      "name": "SaveDataEvent",
      "type": "event"
    },
    {
      "constant": false,
      "inputs": [
        {
          "name": "_accountPubKey",
          "type": "string"
        },
        {
          "name": "_loggedAccount",
          "type": "address"
        }
      ],
      "name": "saveSession",
      "outputs": [],
      "payable": false,
      "stateMutability": "nonpayable",
      "type": "function"
    },
    {
      "constant": false,
      "inputs": [
        {
          "name": "_firstname",
          "type": "string"
        },
        {
          "name": "_lastname",
          "type": "string"
        },
        {
          "name": "_age",
          "type": "string"
        },
        {
          "name": "_gender",
          "type": "string"
        }
      ],
      "name": "SaveData",
      "outputs": [],
      "payable": false,
      "stateMutability": "nonpayable",
      "type": "function"
    },
    {
      "constant": true,
      "inputs": [],
      "name": "GetData",
      "outputs": [
        {
          "name": "_firstname",
          "type": "string"
        },
        {
          "name": "_lastname",
          "type": "string"
        },
        {
          "name": "_age",
          "type": "string"
        },
        {
          "name": "_gender",
          "type": "string"
        }
      ],
      "payable": false,
      "stateMutability": "view",
      "type": "function"
    },
    {
      "constant": true,
      "inputs": [],
      "name": "GetAccountPubKey",
      "outputs": [
        {
          "name": "",
          "type": "string"
        }
      ],
      "payable": false,
      "stateMutability": "view",
      "type": "function"
    }
  ],
  "bytecode": "0x608060405234801561001057600080fd5b50336000806101000a81548173ffffffffffffffffffffffffffffffffffffffff021916908373ffffffffffffffffffffffffffffffffffffffff160217905550610d6e806100606000396000f300608060405260043610610062576000357c0100000000000000000000000000000000000000000000000000000000900463ffffffff16806376b8e528146100675780639770ac081461023b578063e3f6387d146102c4578063eb1a23f114610354575b600080fd5b34801561007357600080fd5b5061007c61048f565b6040518080602001806020018060200180602001858103855289818151815260200191508051906020019080838360005b838110156100c85780820151818401526020810190506100ad565b50505050905090810190601f1680156100f55780820380516001836020036101000a031916815260200191505b50858103845288818151815260200191508051906020019080838360005b8381101561012e578082015181840152602081019050610113565b50505050905090810190601f16801561015b5780820380516001836020036101000a031916815260200191505b50858103835287818151815260200191508051906020019080838360005b83811015610194578082015181840152602081019050610179565b50505050905090810190601f1680156101c15780820380516001836020036101000a031916815260200191505b50858103825286818151815260200191508051906020019080838360005b838110156101fa5780820151818401526020810190506101df565b50505050905090810190601f1680156102275780820380516001836020036101000a031916815260200191505b509850505050505050505060405180910390f35b34801561024757600080fd5b506102c2600480360381019080803590602001908201803590602001908080601f0160208091040260200160405190810160405280939291908181526020018383808284378201915050505050509192919290803573ffffffffffffffffffffffffffffffffffffffff1690602001909291905050506107f9565b005b3480156102d057600080fd5b506102d96109a7565b6040518080602001828103825283818151815260200191508051906020019080838360005b838110156103195780820151818401526020810190506102fe565b50505050905090810190601f1680156103465780820380516001836020036101000a031916815260200191505b509250505060405180910390f35b34801561036057600080fd5b5061048d600480360381019080803590602001908201803590602001908080601f0160208091040260200160405190810160405280939291908181526020018383808284378201915050505050509192919290803590602001908201803590602001908080601f0160208091040260200160405190810160405280939291908181526020018383808284378201915050505050509192919290803590602001908201803590602001908080601f0160208091040260200160405190810160405280939291908181526020018383808284378201915050505050509192919290803590602001908201803590602001908080601f0160208091040260200160405190810160405280939291908181526020018383808284378201915050505050509192919290505050610b0e565b005b6060806060803373ffffffffffffffffffffffffffffffffffffffff166000809054906101000a900473ffffffffffffffffffffffffffffffffffffffff1673ffffffffffffffffffffffffffffffffffffffff1614151561057f576040517f08c379a00000000000000000000000000000000000000000000000000000000081526004018080602001828103825260268152602001807f596f7520617265206e6f7420746865206f776e6572206f66207468697320636f81526020017f6e7274616374000000000000000000000000000000000000000000000000000081525060400191505060405180910390fd5b60038054600181600116156101000203166002900480601f0160208091040260200160405190810160405280929190818152602001828054600181600116156101000203166002900480156106155780601f106105ea57610100808354040283529160200191610615565b820191906000526020600020905b8154815290600101906020018083116105f857829003601f168201915b5050505050935060048054600181600116156101000203166002900480601f0160208091040260200160405190810160405280929190818152602001828054600181600116156101000203166002900480156106b25780601f10610687576101008083540402835291602001916106b2565b820191906000526020600020905b81548152906001019060200180831161069557829003601f168201915b5050505050925060058054600181600116156101000203166002900480601f01602080910402602001604051908101604052809291908181526020018280546001816001161561010002031660029004801561074f5780601f106107245761010080835404028352916020019161074f565b820191906000526020600020905b81548152906001019060200180831161073257829003601f168201915b5050505050915060068054600181600116156101000203166002900480601f0160208091040260200160405190810160405280929190818152602001828054600181600116156101000203166002900480156107ec5780601f106107c1576101008083540402835291602001916107ec565b820191906000526020600020905b8154815290600101906020018083116107cf57829003601f168201915b5050505050905090919293565b3373ffffffffffffffffffffffffffffffffffffffff166000809054906101000a900473ffffffffffffffffffffffffffffffffffffffff1673ffffffffffffffffffffffffffffffffffffffff161415156108e3576040517f08c379a00000000000000000000000000000000000000000000000000000000081526004018080602001828103825260268152602001807f596f7520617265206e6f7420746865206f776e6572206f66207468697320636f81526020017f6e7274616374000000000000000000000000000000000000000000000000000081525060400191505060405180910390fd5b81600290805190602001906108f9929190610c9d565b5080600160006101000a81548173ffffffffffffffffffffffffffffffffffffffff021916908373ffffffffffffffffffffffffffffffffffffffff1602179055507f143b245970e3fb3947d8b10ea0d6c21eed84353250b7251061894fccc06e1d9560405180806020018281038252600d8152602001807f53617665642053657373696f6e0000000000000000000000000000000000000081525060200191505060405180910390a15050565b60603373ffffffffffffffffffffffffffffffffffffffff16600160009054906101000a900473ffffffffffffffffffffffffffffffffffffffff1673ffffffffffffffffffffffffffffffffffffffff16141515610a6e576040517f08c379a000000000000000000000000000000000000000000000000000000000815260040180806020018281038252601e8152602001807f596f7520617265206e6f7420746865206c6f6767656420696e2075736572000081525060200191505060405180910390fd5b60028054600181600116156101000203166002900480601f016020809104026020016040519081016040528092919081815260200182805460018160011615610100020316600290048015610b045780601f10610ad957610100808354040283529160200191610b04565b820191906000526020600020905b815481529060010190602001808311610ae757829003601f168201915b5050505050905090565b3373ffffffffffffffffffffffffffffffffffffffff16600160009054906101000a900473ffffffffffffffffffffffffffffffffffffffff1673ffffffffffffffffffffffffffffffffffffffff16141515610bd3576040517f08c379a000000000000000000000000000000000000000000000000000000000815260040180806020018281038252601e8152602001807f596f7520617265206e6f7420746865206c6f6767656420696e2075736572000081525060200191505060405180910390fd5b8360039080519060200190610be9929190610c9d565b508260049080519060200190610c00929190610c9d565b508160059080519060200190610c17929190610c9d565b508060069080519060200190610c2e929190610c9d565b507fa9dbcdaa934e12ec68f50b2f6a2094ccc5a155976e9bc5b625aa1560ffd9247e60405180806020018281038252600a8152602001807f446174612073617665640000000000000000000000000000000000000000000081525060200191505060405180910390a150505050565b828054600181600116156101000203166002900490600052602060002090601f016020900481019282601f10610cde57805160ff1916838001178555610d0c565b82800160010185558215610d0c579182015b82811115610d0b578251825591602001919060010190610cf0565b5b509050610d199190610d1d565b5090565b610d3f91905b80821115610d3b576000816000905550600101610d23565b5090565b905600a165627a7a723058202351d021efb9738f9ee28266d05063b5da957a12da8e48d3874fa29eaf9138870029",
  "source": "pragma solidity ^0.4.24;\n\ncontract LoginSession {\n    address private owner;\n    address private loggedAccount;\n    string private accountPubKey;\n\n    // User data\n    string private firstname;\n    string private lastname;\n    string private age;\n    string private gender;\n\n    event SaveSessionEvent(string message);\n    event SaveDataEvent(string message);\n\n    modifier onlyOwner() {\n        require(owner == msg.sender, \"You are not the owner of this conrtact\");\n        _;\n    }\n    \n    modifier onlyLogged() {\n        require(loggedAccount == msg.sender, \"You are not the logged in user\");\n        _;\n    }\n\n    constructor() public {\n        owner = msg.sender;\n    }\n\n    function saveSession(string _accountPubKey, address _loggedAccount) public onlyOwner {\n        accountPubKey = _accountPubKey;\n        loggedAccount = _loggedAccount;\n\n        emit SaveSessionEvent(\"Saved Session\");\n    }\n\n    function SaveData(string _firstname, string _lastname, string _age, string _gender) public onlyLogged {\n        firstname = _firstname;\n        lastname = _lastname;\n        age = _age;\n        gender = _gender;\n\n        emit SaveDataEvent(\"Data saved\");\n    }\n\n    function GetData() public view onlyOwner returns(string _firstname, string _lastname, string _age, string _gender) {\n        _firstname = firstname;\n        _lastname = lastname;\n        _age = age;\n        _gender = gender;\n\n        return;\n    }\n\n    function GetAccountPubKey() public view onlyLogged returns(string) {\n        return accountPubKey;\n    }\n}",
  "sourcePath": "/Users/Andy/Dev/Varius/Wallet-web/src/contracts/truffle/contracts/LoginSession.sol",
  "compiler": {
    "name": "solc",
    "version": "0.4.24+commit.e67f0147.Emscripten.clang"
  },
  "schemaVersion": "3.0.1",
  "updatedAt": "2019-01-25T17:06:48.815Z",
  "devdoc": {
    "methods": {}
  },
  "userdoc": {
    "methods": {}
  }
}